:020000040800F2
:10000000E84E0024B1030008515B0008D1570008F6
:10001000495B0008D10D000869930008000000004A
:10002000000000000000000000000000C15D0008AA
:10003000890E000800000000695B0008C95D000827
:10004000CB030008CB030008CB030008CB03000858
:10005000CB030008CB030008CB030008CB03000848
:10006000CB030008CB030008CB030008CB03000838
:10007000CB030008CB030008CB030008CB03000828
:10008000CB030008CB030008CB030008A10E000837
:10009000C10E0008B10E0008D10E0008CB03000805
:1000A000CB030008CB030008CB030008CB030008F8
:1000B000CB030008515F0008615F0008CB03000814
:1000C000CB030008CB030008CB030008CB030008D8
:1000D000CB030008CB030008CB030008CB030008C8
:1000E000CB030008CB03000800000000CB0300088E
:1000F000CB030008CB030008CB030008CB030008A8
:10010000CB030008CB030008CB030008CB03000897
:10011000CB030008CB030008CB030008CB03000887
:10012000CB030008CB030008CB030008CB03000877
:10013000CB030008CB030008CB030008E10E000846
:1001400000000000000000000000000000000000AF
:10015000CB030008CB030008CB030008CB03000847
:10016000CB030008CB030008CB030008CB03000837
:10017000CB030008595B0008CB0300080000000017
:10018000CB030008CB030008CB030008CB03000817
:10019000CB030008CB030008CB030008CB03000807
:1001A000CB030008CB030008CB03000800000000CD
:1001B000CB030008CB030008CB030008CB030008E7
:1001C000CB030008CB030008000000000000000083
:1001D0000000000000000000CB0300080000000049
:1001E000000000000000000000000000000000000F
:1001F0000000000000000000CB030008CB03000853
:10020000CB030008CB03000800000000CB0300086C
:10021000CB030008CB030008CB030008CB03000886
:10022000CB03000800000000CB0300080000000022
:10023000CB030008CB03000800000000CB0300083C
:10024000CB030008CB030008CB030008CB03000856
:10025000CB030008CB030008CB030008CB03000846
:10026000CB030008CB030008CB030008CB03000836
:10027000CB030008CB030008CB03000800000000FC
:10028000CB030008CB030008CB030008CB03000816
:1002900000000000CB030008CB03000800000000B2
:1002A00000000000CB030008CB030008CB030008CC
:1002B000CB030008CB030008CB030008CB030008E6
:1002C000CB030008CB030008CB03000800F002F8C2
:1002D00000F05FF814A696E8000CB244B344DA4587
:1002E00001D100F056F8BAE80F000FA696E83000EA
:1002F000A5EB040504EB0607AAEB0704A7F1010729
:100300004FEA15154FEA3414A4F10104AC4201D3AD
:1003100000F03FF813F0010F18BFFB1A43F0010380
:1003200000F001F8DBE7184724A4000044A4000013
:10033000103A24BF78C878C1FAD8520724BF30C811
:1003400030C144BF04680C60704700007047000073
:100350000023002400250026103A28BF78C1FBD8CE
:10036000520728BF30C148BF0B60704766290AF0AA
:100370005081002070471FB50AF03EF900F0B0FB35
:100380000400002000210AF021F9E0601FBD10B533
:1003900010BD00F0A5FC1146FFF7EDFF09F04CFB86
:1003A00000F0C3FC03B4FFF7F2FF03BC00F006FD4E
:1003B0000948804709480047FEE7FEE7FEE7FEE7F9
:1003C000FEE7FEE7FEE7FEE7FEE7FEE70448054935
:1003D000054A064B70470000A15E0008CD020008E8
:1003E000E82A0024E84E0024E84A0024E84A0024D1
:1003F00053EA020C00F069802DE9F04B4FF0000643
:10040000002B1FBFB3FA83F503FA05F424FA05F6AF
:100410005E4012BF1643B2FA82F502FA05F4C5F146
:1004200020051EBF22FA05FC44EA0C04203556EADA
:10043000044C4FEA144418BF641C4FF000084FF0FE
:100440000009904271EB030C39D3002919BFB1FAAE
:1004500081F701FA07F6B0FA80F700FA07F6C7F15C
:1004600020071EBF20FA07FC46EA0C062037B6FB21
:10047000F4FCA7EB0507103F07F01F0BCBF120069C
:100480002CFA06F60CFA0BFB44BFB3460026202FCD
:10049000A4BF5E464FF0000B5BEA060C08BF4FF0AE
:1004A000010B19EB0B0948EB0608ABFB027C06FBC2
:1004B00002CC0BFB03CCC01B71EB0C01C1E70B465C
:1004C000024641464846BDE8F08B13B5084318BFC5
:1004D0004FF0FF300146AFF30080BDE81C4070478D
:1004E0000FB41CB50C0007AA009007D04142A142EE
:1004F00002D32044401E01E04FF0FF30074B7B4405
:1005000069460190069800F0D0FA0021002C01D035
:10051000009A11701CBC5DF814FB0000CF050000B0
:100520002DE9F0474FF0000A89460446C0F820A0A4
:100530002046E1688847002876D0252806D0D4E9EF
:1005400001219047206A401C2062F1E7E1682046C3
:1005500000258847C4F81CA006460027C4F818A048
:100560002A2E09D030460AF029F838B304EB870860
:10057000303EC8F8186019E059F8041B204604EB17
:1005800087029161E1688847012F064618D1E0692A
:10059000002820DA25F020051DE0D8F8180000EB2F
:1005A000800006EB40003038C8F818002046E168AB
:1005B000884706460AF002F80028EED1012F0AD03B
:1005C0002E2E08D12046E16888477F1C0646022F60
:1005D00045F02005C4DBA069002803DA404245F05D
:1005E0000105A061E80701D025F01005B6B1A6F11C
:1005F0004100192802D8203645F400654A463146A4
:10060000204625604D46FFF7B1FE58B1012806D0BF
:10061000ED1D25F0070000F1080989E704E005F168
:10062000040985E730468AE7206ABDE8F0874FF085
:10063000000200B5134694469646203922BFA0E832
:100640000C50A0E80C50B1F12001BFF4F7AF09073E
:1006500028BFA0E80C5048BF0CC05DF804EB89002F
:1006600028BF40F8042B08BF704748BF20F8022B72
:1006700011F0804F18BF00F8012B7047704770478A
:1006800070472DE9FF4F0C461E464FF0FF378BB0E9
:10069000D2E90001DDF860800A908A46C1F30A556C
:1006A00005B93D46002108464FF00000BAF1000FA1
:1006B00000F4400005DA00EB80004FF4400101EA4D
:1006C00050004FEA9059B9F1010F00DDB9460A9880
:1006D00050EA4A000ED044F61050A5F2FF354543CB
:1006E0002F14B8F1000F1ED07542291E1EDDC9F16E
:1006F00000021CE0B8F1010F4FF0000001D03021E2
:1007000003E0F24305E02154401CB042FBDB3046DD
:100710000022002121540B99C1F80880C1E9002072
:100720000FB0BDE8F08FBD1B6D1CDEE74A4600DA56
:10073000694206A800F05EFA06AB93E8070003AB37
:1007400083E8070050460A9909F058FB8DE8070036
:10075000A0F500501F3800900398002D0ADD42F2EA
:100760001F014A460844002303A90390684609F084
:10077000C1FD09E0A0F500504A461F38002303A937
:100780000390684609F0CBFD8DE807000004000CDB
:1007900003D04FF0FF30410800E01046B8F1000FE1
:1007A00003D00022009215461EE0751E05D400F00D
:1007B0009BF9303262556D1EF9D5B34601220843CC
:1007C00002D000227F1C04E02078302801D10022D2
:1007D0007F1E002A099784D01DE0112D07DA00F052
:1007E00083F9303262556D1C50EA0102F5D108439D
:1007F00002D00098C8B10EE00021681E05E0235C1D
:10080000625C63542254401E491C8142F7DBAB46B4
:10081000A81B401E0990002004F80B000B98099AB1
:10082000C0F80880C0E9002B7AE711264FF00008D5
:1008300057E72DE9F04F88460446D21D22F0070104
:1008400091B0D1E90001CDE90A0109F09FFE02460D
:100850000B98C00F01D02D2007E02068810701D53B
:100860002B2002E0202101EAC000032A099001D0D8
:10087000072A05DB03464146204600F07BF90BE1E1
:100880002078800601D5E06900E00620B8F1650F08
:10089000814606D0B8F1660F18D0B8F1670F70D155
:1008A00031E00020B9F1110F009001DB112301E0CC
:1008B00009F101030AAA01A90CA8FFF7E2FEDDE98C
:1008C0000C70002609F10105834647E001204B46E4
:1008D00000904FF000470AAA01A90CA8FFF7D1FE2B
:1008E000DDE90DB00C995D46002610B909F1010053
:1008F0000D18B9EB050003D4C0F1FF3609F101056D
:10090000A5EB09002BE0B9F1010F01DA4FF0010965
:100910000020B9F1110F0090484601DD112300E0DD
:1009200003460AAA01A90CA8FFF7ABFEDDE90C708B
:100930004D4600268346207800070AD4AB4500DAEE
:100940005D4601A8012D04DD411911F8011C302973
:1009500007D04F4502DA17F1040F04DA012082466E
:100960000FE06D1EEEE7002F02DCED1B3E4403E0BE
:10097000781CA84200DD7D1CB81B00F1010A4FF075
:1009800000472078000703D4AA4501DB4FF0FF3A67
:100990000021B7F1004F0DF143088DF8431024D02A
:1009A00002202B23002F01DA7F422D230A21021E71
:1009B000A0F1010000DC5FB197FBF1FC97FBF1F2C5
:1009C00001FB1C7C17460CF1300C08F801CDEEE75A
:1009D000A8F1010003702188090501D5452100E037
:1009E0006521A0F1010800F8011C09980FA9A1EBED
:1009F0000807FF1D00B10120411901EBEA70A16950
:100A00003844081A401EA0612078C00602D420464F
:100A1000AFF30080099828B1D4E901219047206AFA
:100A2000401C20622078C00622D52046AFF300800B
:100A30001EE0002E04DBB34502DD01A8805D00E06E
:100A40003020D4E901219047206A401C2062761CA6
:100A5000AAF101005FEA000A0AD100F041F8C0687B
:100A60000168405CD4E901219047206A401C206263
:100A7000281EA5F10105DCDC07E0D4E9012118F806
:100A8000010B9047206A401C2062381EA7F1010725
:100A9000F3DC2046AFF30080032011B041E60000F4
:100AA00001694A1C02610878704700B58FB0CDE932
:100AB00001310021059105497944CDE90310114622
:100AC0006846FFF72DFD0FB000BD0000E5FFFFFFFA
:100AD000D1E900239A4202D2531C0B601070704778
:100AE000004870472001002430B5B0F10A0271F1CE
:100AF00000034FEA900E4EEA817EB0EB0E0061EBF0
:100B000091014FEA101E4EEA017E10EB0E0041EB00
:100B100011114FEA102E4EEA016E10EB0E0041EB60
:100B200011214FEA104E4EEA014E10EB0E0041EB40
:100B30001141401841F100014FEAD00040EA4170F4
:100B40004FEAD1014FEA810444EA907410EB80052A
:100B500044EB01046D1944EB0404521BA3414FF014
:100B6000000348BF0A3200D530BD401C41F10001EE
:100B700030BD00002DE9F0411F4604460326016800
:100B8000072A01F4006004DB08B116A505E016A5EC
:100B900003E008B115A500E015A521F010002060C4
:100BA000A069C01EA0610FB1401EA0612046AFF336
:100BB00000804FB1D4E9012138469047206A401C9B
:100BC0002062C01C206206E0206AFAE7D4E9012115
:100BD00015F8010B9047761EF8D22046AFF300803F
:100BE000BDE8F0814E414E006E616E00494E4600F8
:100BF000696E66002DE9F047814616468AB0354891
:100C000078440DC88DE80D0032487844801C03AC50
:100C10000DC884E80D0041F69B300844372190FB55
:100C2000F1F290FBF1F5A5F1800501FB12041B3CEC
:100C300002D56442012000E00020DFF898A0804641
:100C40000027FA44AAF1BE0A0EE0E0070AD03246B5
:100C5000684607EB470101230AEB810109F05FFBBE
:100C60008DE8070064107F1C002CEED1194F7F44E3
:100C7000AE3F19E0E80715D007EB04100DF1180A94
:100C800090E80E008AE80E00C068F04201D1981981
:100C900008903246012306A903A809F040FB03ABE4
:100CA00083E807006D10641C002DE3D14FF00103B1
:100CB00032466946B8F1000F03A802D009F01AFBCA
:100CC00001E009F02CFBC9E90001C9F808200AB0CD
:100CD000BDE8F087909A00000048704700010024AA
:100CE0007546FFF7F9FFAE4605006946534620F00A
:100CF0000700854618B020B5FFF768FBBDE8204027
:100D00004FF000064FF000074FF000084FF0000BC7
:100D1000AC46ACE8C009ACE8C009ACE8C009ACE836
:100D2000C00921F007018D46704710B50446AFF3A6
:100D300000802046BDE81040FFF734BB00000000F3
:100D400030B44FF0013C50F8042BCCFA52F451F877
:100D5000043BD51A20D1FCB950F8042BCCFA52F43C
:100D600051F8043BD51A17D1B4B950F8042BCCFA7A
:100D700052F451F8043BD51A0ED16CB950F8042B3B
:100D8000CCFA52F451F8043BD51A05D1002CDAD034
:100D900030BC4FF00000704729BAB1FA81F111F070
:100DA0001801D1F120008440F2D1CA40CB4012F0AA
:100DB000FF0213F0FF0330BCD01A7047014918201E
:100DC000ABBEFEE7260002007047000000000000F6
:100DD000FEE7000000000000002070470000000057
:100DE000002070470000000010B541F2985440F612
:100DF0009851C2F20044C2F200410022204606F09F
:100E000067F840F298512046C2F2004106F050F8CF
:100E1000002010BD0000000010B541F298540146BA
:100E2000C2F20044204606F043F8204606F01CF8C3
:100E3000002010BD000000000020704700000000EE
:100E400041F29853C2F2004393F89C22032A17D12F
:100E50000A460146D3F8BC0290B1D0F8140200282B
:100E60001CBF0120704710B541F29854C2F20044F3
:100E7000204606F02DF82046BDE8104006F0ACB83C
:100E800003207047000000007047000000000000D1
:100E9000EFF3108072B600BFFEE700000000000014
:100EA00041F67400C2F2004000F0B6BA0000000043
:100EB00041F67400C2F2004000F0AEBA000000003B
:100EC00041F61410C2F2004000F0A6BA0000000083
:100ED00041F61410C2F2004000F09EBA000000007B
:100EE00080B541F67400C2F2004000F095FA41F678
:100EF0001410C2F20040BDE8804000F08DBA00003E
:100F0000B0B5044601F0B8FA40F200010546C2F25D
:100F10000041621C097818BF0C4400BF01F0ACFA14
:100F2000401BA042FAD3B0BD90F89830013B012B92
:100F30000ED80068836D0B4212D0836D0B408B423C
:100F400032D1C36D43F00203C3658B050ED412E0AA
:100F500000F19C01012002220B681A430A607047CD
:100F6000C36D43F00103C3658B0504D5D0F8E030B1
:100F70001343C0F8E0304B0504D5D0F8E4301A43F1
:100F8000C0F8E4204FF6FF72436DC3F6CF720A40FB
:100F90001A4342658A0F4AF614010020C4F2000188
:100FA0000B681A430A6070470323C3658B05DDD4C1
:100FB000E1E700000000000090F89830022B1BD100
:100FC0002DE9F0430668D6F8C03013F07C5F1BD0E3
:100FD000D6F8C4309B0221D4D6F8C4300C69C3F3D0
:100FE000044CD1E90035002D8D6821D023432B43DB
:100FF00043F0804E20E000BFD0F89C1041F0080183
:10100000C0F89C1001207047D0F89C1041F02001DE
:10101000C0F89C100120BDE8F08300BFD0F89C1000
:1010200041F40071C0F89C100120BDE8F08300BFBE
:1010300044EA834343EA050E836ED0F88450D1E935
:1010400007970CFB03F48B6949EA0767D1F8148012
:10105000D1F80C901F4305EB840347EA080745F8D5
:1010600024E047EA09475F60CF6887B14AF22C75F0
:10107000083303320024C0F6000500BF171957F8E3
:10108000037C1F51CF680434EF5DBC42F6D30121CD
:1010900001FA0CF1C6F8D010C0F894100020BDE899
:1010A000F083000000000000704700000000000016
:1010B00090F89830012B0FD1012900684FEA0262A5
:1010C00012D0D9B9D0F8F01021F07C511143C0F8FA
:1010D000F0100020704700BFD0F89C1041F00401D0
:1010E000C0F89C1001207047D0F8A01021F0FE41FC
:1010F0001143C0F8A0100020704700BFD0F8B01016
:1011000021F0FE411143C0F8B010002070470000EC
:1011100090F89820013A012A0CD880B50A68002A74
:10112000CA680FD00B69072A43EA427E18D18B693F
:101130001BE000BFD0F89C1041F00201C0F89C10E9
:1011400001207047072A19D10A69D1E906C31204A0
:1011500042EA032242EA0C0242F0605218E000BF69
:10116000D1F808C04B6943EA8C73006F496800EB03
:10117000C10240F831E05360002080BD8B68D1E9A6
:1011800004CE9B0743EAC26242EA0C4242EA0E02E4
:101190004968C06E40F82120002080BD000000009A
:1011A00090F898C0BCF1010F0ED19200006842EA9D
:1011B0000111DDF800C041EA430141EA0C01C0F829
:1011C00080100020704700BFD0F89C1041F004014F
:1011D000C0F89C100120704790B110B5044600F093
:1011E000F3FD2068C16D21F00301C165204600F0C8
:1011F000AFFC0020C4F89C0084F8980010BD00BF2C
:10120000012070470000000070470000000000004F
:10121000890158BF70470068816921F0010181612F
:1012200070470000000000002DE9F04390F898702E
:10123000022F11D1402919D10668D6F8A07017F4F1
:10124000FE0F2FD0D6F8A4707F0635D0D6F8A47044
:10125000FF013BD400273CE0D0F89C1041F008018E
:10126000C0F89C100120BDE8F08300BF41290FD1D8
:101270000668D6F8B07017F4FE0F13D0D6F8B47025
:101280007F0619D0D6F8B470FF012BD400272CE0CC
:10129000076DB94206D200F17C05466D4FF0000C97
:1012A0000F462BE0D0F89C1041F02001C0F89C10B4
:1012B0000120BDE8F08300BFD0F89C1041F480719C
:1012C000C0F89C100120BDE8F08300BFD6F8A070E4
:1012D000FF0FD6F8A46000F17405C6F305263E445E
:1012E000476C0AE0D6F8B070FF0FD6F8B46000F192
:1012F0007805C6F305263E44C76CB44607FB06F4E2
:101300002D6805EB840E55F8247017F08047576060
:1013100055F8247027F0604608BFC7F38A46166068
:1013200055F8247007F00057976055F8244004F0F2
:1013300000441461BEF80440D461BEF8064014F0C5
:101340000F04D460DEF8044004F480145461DEF825
:10135000044004F4001494619EF8074004F07F04F4
:101360001462DEF804404FEAD474546228D04AF282
:101370002C780024C0F600080EEB0406651C377AB2
:101380001F55D76818F80770BD4219D21F19757A12
:101390007D70D56818F80590A51C4D453FBFB57AFE
:1013A000BD70D56818F805903CBFE51C4D4507D2C7
:1013B000F57A0434FD70D56818F80550AC42DBD3DB
:1013C000402905D10068C0F8A8C00020BDE8F0831E
:1013D000412905D10068C0F8B8C00020BDE8F083FD
:1013E0001F2909D80068012202FA01F1C0F89810FB
:1013F0000020BDE8F08300BF006801F01F0101225A
:1014000002FA01F1C0F89C100020BDE8F083000052
:1014100070470000000000002DE9F04F87B004463F
:101420004AF61000C4F2000001684AF61400C4F243
:101430000000026820680A40D0F850B0D0F85490FC
:10144000056D466D036D0293436D0193036D069325
:10145000436D0593036D0493436D0393D0F854A03B
:10146000D0F850805FEACA5311D518F480710ED0BD
:101470004FF4807101654AF610010020C4F20001AA
:10148000174608602046FFF7C3FF3A4620685FEA28
:101490004A510BEA090B4FEA827740F14B814AF639
:1014A000100918F48061C4F2000910D0D0F8DC10E3
:1014B0000092D0F8E42011404FF4806202650020D1
:1014C000C9F80000204600F05BFE009A206805EA9B
:1014D00006050BF4704657B10021016502F00300C8
:1014E000C9F8000020463946FFF7DEFD2068DDE937
:1014F000012101EA020705F00F0546B1066500204B
:10150000C9F800002046314600F042FE206807F08E
:10151000F00645B105650020C9F8000020462946BF
:1015200000F01EFC206846B106650020C9F80000E6
:101530002046314600F028FC20685FEA0A510CD5AD
:1015400018F4006109D04FF4006101650020C9F86A
:101550000000204600F020FE20685FEA8A5111D585
:1015600018F400710ED0D0F8D810D0F8E020114057
:101570004FF4007202650020C9F80000204600F018
:1015800003FE20685FEA0A310CD518F4002109D067
:101590004FF4002101650020C9F80000204600F04A
:1015A000DBFB20685FEACA310CD518F4803109D022
:1015B0004FF4803101650020C9F80000204600F09A
:1015C000DBFD20685FEA4A31DDE9032101EA02051B
:1015D0000CD518F4802109D04FF48021016500203A
:1015E000C9F80000204600F0C3FD20685FEA8A3198
:1015F000DDE9052102EA010205F060710ED518F45B
:1016000000330BD04FF4003303650023C9F80030DA
:10161000D4F89C3043F08003C4F89C3002F071553C
:1016200039B101650020C9F800002046FFF7F0FD40
:10163000206845B105650021C9F80010D4F89C1058
:101640002943C4F89C10A9F5016188420AD0D4F856
:101650009C0000286AD0204607B0BDE8F04FFFF795
:10166000D3BD00BF606881688907F0D0016A426A13
:10167000036A476A114003EA070202F03005D0F816
:101680002080D0F82490D0F820B0466A026A0692F2
:1016900011F00F01426A0592D0F824A0026A049268
:1016A00003D00162204600F057FD08EA09072DB17A
:1016B000606829460562204600F056FD5FEA4A60F0
:1016C00006EA0B0607F4C0750ED5049810F040002A
:1016D0000AD060684023C16BC26B090C02F03F0264
:1016E0000362204600F03CFDDDE9051000EA010739
:1016F00006F4FC462DB1606829460562204600F0DC
:1017000027FD07F4F02036B161680E62D4F89C1012
:101710003143C4F89C10002899D061680862D4F85D
:101720009C100843C4F89C0091E700BF07B0BDE8D7
:10173000F08F00BF4AF61009C4F20009002F05EA35
:1017400006050BF470467FF4C7AED0E6000000003B
:10175000F0B12DE9F04F83B04AF200080446C4F21C
:1017600000080068404533D094F89810B9B38169F7
:1017700021F01001816100F07FFE0546206881693B
:10178000090707D500F078FE401B0B28F6D312E0BE
:1017900001207047816941F00101816100F06CFE18
:1017A000054600BF20688169C90721D100F064FEA9
:1017B000401B0B28F6D30120D4F89C100843C4F832
:1017C0009C00032084F89800012003B0BDE8F08F4E
:1017D00008F58071616094F898100029C7D1002045
:1017E00084F89900204600F007FA2068BFE700BFA0
:1017F000816941F002018161217C826922F040020D
:10180000012918BF40328261617C826922F48042E2
:10181000012908BF02F580428261A17C826922F41D
:101820008052012918BF02F580528261816921F43A
:101830004073D4E902120B438361836923F0A4034C
:101840008361036923F0100303619AB1012A0DD06B
:10185000022A09D08369032A43F080038361036964
:1018600043F01002026105D1202200E004228369C6
:101870001A438261D4E90572E369561E6FF0FF02D4
:10188000256A02EB0323B1F5407F43EA4663A5F1E5
:10189000010646EA030640F20003CFF6FF7303EBAE
:1018A000074746EA0701C16110D1D4E90B65D4E9C5
:1018B0000917013F02EB06226FF00F063A4306EBD1
:1018C00005173A4303EB01411143C160236E2BB16D
:1018D000616ED0F8C0201143C0F8C010E16DCDE9B1
:1018E0000113D9424AF2AC61C0F6000109D0D0F828
:1018F000C820A36E22F0070251F823301A43C0F823
:10190000C820D4F840C0BCF1000F09D0D0F8BC20EA
:10191000636C22F0070251F823301A43C0F8BC2050
:10192000D4F848B0BBF1000F0AD0D0F8BC20E36C6B
:1019300022F0700251F8233042EA0312C0F8BC20B2
:10194000D4F850A0BAF1000F0AD0D0F8BC20636DD3
:1019500022F4E06251F8231042EA0121C0F8BC10E1
:10196000404504D161688A6822F003028A60002140
:10197000C4F89410C4F89C10012184F8981004F164
:101980003409D0F884104FF6FC729143656C99E8E5
:101990000C02009541EA8201C0F88410D0F884104E
:1019A00021F47F0141EA0341C0F884109918D0F86E
:1019B00088306FF38F0343EA8103C0F88830D0F892
:1019C000883023F4FE0343EA0943C0F8883001EB72
:1019D0004903D0F8A0606FF38F0646EA8306C0F88B
:1019E000A060D0F8A06026F4FE0646EA0C46C0F8D7
:1019F000A06005FB0C36D0F8B0306FF38F0343EADC
:101A00008603C0F8B030D0F8B03023F4FE0343EAC8
:101A10000B43C0F8B030E36CD0F8AC506FF38F05D7
:101A200003FB0B6645EA8605C0F8AC50D4F8548039
:101A300008FB0A65D0F8F0606FF38F0646EA85066A
:101A4000C0F8F060D0F8F0E0A66D2EF47C1747EAFD
:101A50000647C0F8F070F70007EB8507D0F8C050D4
:101A60006FF38F052F43C0F8C070D0F8C070009D91
:101A7000DDF804E027F47C1705FB0CFC4AF20005B6
:101A800047EA0E47C0F8C070C4F2000503FB0BC361
:101A900005F54067D0F8C05007EB820207EB8101E3
:101AA00025F07C57029D47EA0567C0F8C07001EB3E
:101AB000C90008FB0A372167A16E00EB8C0C606738
:101AC00000EB8303E266C4E91EC30EFB01F300EBE7
:101AD00087006943C4F8800000EBC600C4F88400A6
:101AE00000EB8300C4F8880000EB81004DF2FC316C
:101AF000C4F20001C4F89000884201D920205BE6BE
:101B000082421FD21146002041F8040BD4F89030D5
:101B10009942BFF45AAE506002F10801D4F89030F7
:101B200099423FBF906002F10C01D4F89030994285
:101B3000BFF44BAED0601032D4F890108A42E1D39B
:101B400043E600BF002003B0BDE8F08F00000000B6
:101B500010B54AF200410068C4F20001884229D061
:101B60004AF20001C4F20001884218BF10BD40F2E1
:101B70007010C2F2004001680139016007D144F2DF
:101B8000EC40C5F60200016821F48071016040F26A
:101B900000400321C5F6020000F5006000F000FBE4
:101BA0001524132000F0ECFC2046BDE8104000F0A6
:101BB000E7BC00BF40F27010C2F20040016801397A
:101BC000016007D144F2EC40C5F60200016821F43F
:101BD0008071016040F200404FF44051C5F60200B0
:101BE00000F0DEFA1624142000F0CAFC2046BDE8FE
:101BF000104000F0C5BC0000B0B5B6B0044602A865
:101C0000B8210025CDE93455CDE932553195FEF79F
:101C10000EFD4AF200412068C4F2000188423FD024
:101C20004AF20001C4F20001884240F09080002096
:101C300003904FF4004002904FF080501D9002A896
:101C400001F0F2FE08B1FFF723F940F2701144F2FF
:101C5000E040C2F20041C5F602000A68002A02F123
:101C600001020A6008D1C16841F48071C160C16895
:101C700001F48071019101990168152441F0080176
:101C800001600068132500F008000190019840F2FF
:101C90000040C5F60200032100F5006034E000BFFB
:101CA0004FF4004002904FF080501D9002A8039521
:101CB00001F0BAFE08B1FFF7EBF840F2701144F200
:101CC000E040C2F20041C5F602000A68002A02F1B3
:101CD00001020A6008D1C16841F48071C160C16825
:101CE00001F48071019101990168162441F002010B
:101CF00001600068142500F002000190019840F294
:101D000000406021C5F6020031910221329100218C
:101D1000CDE933110921359131A900F0D1FA002123
:101D20000022284600F058FC284600F041FC002123
:101D30000022204600F050FC204600F039FC3F20F5
:101D40000021002200F048FC3F2000F031FC36B0BA
:101D5000B0BD00000000000070470000000000005F
:101D600041F67401C2F20041884209D041F61411D3
:101D7000C2F20041884218BF704707F0A9BD00BFFA
:101D800007F076BD00000000704700000000000072
:101D900090F8981001290DD1022180F8981001685F
:101DA0008A6922F001028A610021C0F89C1000209B
:101DB000704700BFD0F89C1041F00401C0F89C109F
:101DC000012070470000000090F89810022927D1E8
:101DD000016851F8182F42F001020A600A68D20720
:101DE00004BF0A685FEAC27222D00A6822F01002B9
:101DF0000A600A68120707D50A68120744BF0A6812
:101E00005FEA027200F1D2800A6842F002020A60C0
:101E10000021C0F89410012280F8982008467047ED
:101E2000D0F89C1041F00801C0F89C1001207047C8
:101E30000A68D20704BF0A685FEAC272D5D10A688D
:101E4000D20704BF0A685FEAC272CED10A68D2071D
:101E500004BF0A685FEAC272C7D10A68D20704BF2A
:101E60000A685FEAC272C0D10A68D20704BF0A6872
:101E70005FEAC272B9D10A68D20704BF0A685FEA92
:101E8000C272B2D10A68D20704BF0A685FEAC2729E
:101E9000ABD10A68D20704BF0A685FEAC272A4D154
:101EA0000A68D20704BF0A685FEAC2729DD10A6855
:101EB000D20704BF0A685FEAC27296D10A68D207E5
:101EC00004BF0A685FEAC2728FD10A68D20704BFF2
:101ED0000A685FEAC2727FF488AF0A68D20704BF5B
:101EE0000A685FEAC2727FF480AF0A68D20704BF53
:101EF0000A685FEAC2727FF478AF0A68D20704BF4B
:101F00000A685FEAC2727FF470AF0A68D20704BF42
:101F10000A685FEAC2727FF468AF0A68D20704BF3A
:101F20000A685FEAC2727FF460AF0A68D20704BF32
:101F30000A685FEAC2727FF458AF0A68D20704BF2A
:101F40000A685FEAC2727FF450AF0A68D20704BF22
:101F50000A685FEAC2727FF448AF0A68D20704BF1A
:101F60000A685FEAC2727FF440AF0A68D20704BF12
:101F70000A685FEAC2727FF438AF0A68D20704BF0A
:101F80000A685FEAC2727FF430AF0A68D20704BF02
:101F90000A685FEAC2727FF428AF0A68D20704BFFA
:101FA0000A685FEAC2727FF420AFC3E00A681207D2
:101FB00044BF0A685FEA02727FF526AF0A6812071B
:101FC00044BF0A685FEA02727FF51EAF0A68120713
:101FD00044BF0A685FEA02727FF516AF0A6812070B
:101FE00044BF0A685FEA02727FF50EAF0A68120703
:101FF00044BF0A685FEA02727FF506AF0A681207FB
:1020000044BF0A685FEA02727FF5FEAE0A681207F3
:1020100044BF0A685FEA02727FF5F6AE0A681207EB
:1020200044BF0A685FEA02727FF5EEAE0A681207E3
:1020300044BF0A685FEA02727FF5E6AE0A681207DB
:1020400044BF0A685FEA02727FF5DEAE0A681207D3
:1020500044BF0A685FEA02727FF5D6AE0A681207CB
:1020600044BF0A685FEA02727FF5CEAE0A681207C3
:1020700044BF0A685FEA02727FF5C6AE0A681207BB
:1020800044BF0A685FEA02727FF5BEAE0A681207B3
:1020900044BF0A685FEA02727FF5B6AE0A681207AB
:1020A00044BF0A685FEA02727FF5AEAE0A681207A3
:1020B00044BF0A685FEA02727FF5A6AE0A6812079B
:1020C00044BF0A685FEA02727FF59EAE0A68120793
:1020D00044BF0A685FEA02727FF596AE0A6812078B
:1020E00044BF0A685FEA02727FF58EAE0A68120783
:1020F00044BF0A685FEA02727FF586AE0A6812077B
:1021000044BF0A685FEA02727FF57EAE0A68120772
:1021100044BF0A685FEA02727FF576AE0A6812076A
:1021200044BF0A685FEA02727FF56EAE0A68120762
:102130007FF56AAED0F89C1041F00101C0F89C1008
:10214000032180F898100120704700000000000073
:102150007047000000000000704700000000000011
:102160007047000000000000704700000000000001
:1021700070470000000000007047000000000000F1
:1021800070470000000000007047000000000000E1
:1021900070470000000000007047000000000000D1
:1021A000002908BF70472DE9F04F81B000F12642A9
:1021B00042F2004302F1FF72C5F602030A2598427B
:1021C0004FEAB22440F2040E08BF0925082CC5F6D8
:1021D000000E38BF4FEAB22500F1200C0022002784
:1021E0000024009529E000BF0323066803FA02FAE1
:1021F0006FF0030303EA540346EA0A06066007F099
:102200001C060F2505FA06F95CF8036026EA0906A4
:102210004CF80360C36823EA0A03C360436823EAF7
:1022200008034360836823EA0A03836001340437A8
:1022300031FA04F302F102023CD0012303FA04F85C
:1022400018EA0109F2D040F2084324F00305C5F66C
:10225000000307F00C0BED580F2303FA0BFA009B59
:1022600005EA0A0503FA0BF6B542BDD1DEF87C504B
:102270004FF0B04325EA0905CEF87C50DEF88050D7
:1022800025EA0905CEF88050DEF8005025EA090558
:10229000CEF800501E68A50826EA09061E6040F226
:1022A0000843C5F6000353F8256026EA0A0643F8FA
:1022B000256099E701B0BDE8F04F704700000000CD
:1022C0002DE9F04F83B00F68002F00F0C98000F1B6
:1022D000264642F2004506F1FF76C5F602050A22BF
:1022E000A8424FEAB62540F2040C08BF092200F1CB
:1022F00020030093082DC5F6000C38BF4FEAB62224
:10230000002400264FF0000801920AE008F10108BD
:102310000F6837FA08F206F1020604F1040400F02F
:102320009F80012202FA08FE17EA0E09EED0D1F8CA
:1023300004B003220BF00307B2407D1E6FEA020ACD
:10234000012D11D88268CD6802EA0A02B5402A43FD
:102350008260CBF30015426822EA0E0205FA08F506
:102360002A43426004E000BF032F01D103271FE08E
:10237000C2688D6802EA0A02B540022F42EA0502ED
:10238000C26015D16FF0030204F01C0502EA580B7D
:10239000009A0F2352F80BE0AB400F692EEA0303BB
:1023A000AF403B4342F80B30D1F804B00BF00307C9
:1023B000026807FA06F302EA0A021BF4403F42EA07
:1023C00003020260A2D044F2F44340F2084EC5F684
:1023D0000203C5F6000E0F251A6842F002021A60C9
:1023E0001A6802F00202029228F00302029B04F033
:1023F0000C0352F80E709D40AF43019D05FA03F3A4
:102400003B4342F80E304FF0B04EDEF800204B68F0
:1024100042EA0907DD0258BF22EA09079D02CEF809
:102420000070DCF8002042EA090758BF22EA0907D9
:102430009D03CCF80070DCF8802042EA090758BF01
:1024400022EA0907DB03CCF88070DCF87C2042EA42
:10245000090758BF22EA0907CCF87C7056E700BF8D
:1024600003B0BDE8F08F0000002A08BF09048161B5
:10247000704700000000000042F6E420C2F2004075
:10248000006870470000000040F2000042F6E421BE
:10249000C2F20040C2F2004100780A6810440860AD
:1024A000704700000000000080B5032000F0C4F871
:1024B00002F0AEF944F218414AF20473C5F6020183
:1024C000C0F600030A68C2F303229A5C096801F0AF
:1024D0000F0102F01F02595CD04040F20C02C2F220
:1024E000004201F01F0120FA01F1116040F20801E1
:1024F000C2F2004108600F2000F00AF800281CBF5B
:10250000012080BD00F02CF8002080BD00000000FC
:10251000B0B540F20005C2F200452978F1B1044699
:1025200040F20800C2F200404FF47A72B2FBF1F1BF
:102530000068B0FBF1F002F093FC0F2C01464FF065
:1025400001000AD8002918BFB0BD4FF0FF300022AB
:10255000214600F041F800206C60B0BD0120B0BD04
:1025600081B044F2F440C5F60200016841F0020176
:102570000160006800F002000090009801B0704710
:10258000002848BF70474EF2801300F01F01C0F3CF
:102590004A10CEF20003012202FA01F143F82010A2
:1025A000BFF34F8FBFF36F8F704700000000000034
:1025B000002848BF704700F01F01012202FA01F114
:1025C0004EF20012C0F34A10CEF2000242F8201080
:1025D000704700000000000070B54EF60C5C4FF034
:1025E000FF36CEF2000C00F1604505F56445DCF8DD
:1025F0000030C3F3022E8EF00703042B28BF042300
:10260000BEF1030406FA03F321EA030100F00F030D
:1026100038BF0024043B0028634406FA04F048BF96
:1026200003F10C05A14022EA0000084300012870D4
:1026300070BD0000000000004EF60C514FF6FF0385
:10264000CEF200010A681A4060F30A2242F080606C
:1026500040F0FD700860704701680122C0F8D8247E
:10266000002280F8CC24886940F000608861486DC1
:1026700040F08052002042F003024A65704700009B
:10268000704700000000000002680020516270479F
:102690002DE9F043D0F80080D8F8243091B1D8F873
:1026A0002870B1F1010C03EB17414FD05FFA8CF3A6
:1026B0000CF0030E042B08F582730BD200270024C4
:1026C0002BE000BF002043EA0241C8F82810BDE813
:1026D000F08300BF0CF0FC0908F1F406002400BFF1
:1026E00056F8107F44F00100C0B244F00305EDB28B
:1026F00001EB174144F0020753F82000FFB2043405
:1027000001EB104053F8271053F82550E7B200EBC7
:1027100011404F4500EB1541E2D1BEF1000F15D03D
:1027200053F82700BEF1010F01EB10410ED0601CE1
:10273000BEF1020FC0B253F8200001EB104105D0EA
:10274000A01CC0B253F8200001EB104108EB8C0034
:1027500041EA0241C0F804110020BDE8F083000006
:10276000D0F8E00404F078BF01EBC10200EB820274
:10277000D0F8E004126A04F0DBBE000000000000A4
:1027800001EBC10200EB8202D0F8E004D2F8602233
:1027900004F02ABF00000000D0F8E00404F060BF9D
:1027A00010B54FFA81FC0A4601F00F0E4FF4157177
:1027B000BCF1000F4FEAD21248BF14210EEBCE0C31
:1027C00090F89444431803EB8C01012C03F82CE09F
:1027D0004A7001D1022010BD012280F894240268C1
:1027E0000446104605F044FD002084F8940410BD12
:1027F000B0B5027901F00F03934201D90120B0BDB9
:102800004AB24FF41574002A03EBC30E48BF1424D8
:10281000C909021990F8944402EB8E0C012C4FF078
:1028200000048CF801108CF8024002F82E3001D11F
:102830000220B0BD012180F89414016805460846C5
:10284000614606F005F8204685F89444B0BD0000C6
:1028500001F00F0101EBC10100EB8100D0F868022B
:10286000704700000000000010B54FFA81FE01F033
:102870000F0C6FF3DF22BEF1000F0CEBCC0123D461
:1028800000EB810E00218EF855120EF515718EF8B1
:1028900054C2CEF85C228EF85832022B01D10022AD
:1028A0004A7190F89424012A02D1022010BD00BF81
:1028B000012280F8942402680446104605F06CFB5F
:1028C000002084F8940410BD00EB81014FF0010E4C
:1028D00001F814CF81F801E08A600B71A1F81AC0E9
:1028E000022BDCD0DDE7000080B501F00F0C0CEB13
:1028F000CC0100EB810E0021CEE998238379CEF83C
:1029000068128EF855120EF51571012B8EF854C20F
:1029100008BFCA6100681A4605F0E6FF002080BDC6
:10292000B0B5027901F00F0494424FF001022BD8A8
:102930004BB24FEAD11C002B4FF4157548BF21460E
:1029400048BF142590F894E401EBC1030544BEF19F
:10295000010F05EB830105F8234081F801C08A705F
:1029600002D10220B0BD00BF80F894240546006863
:1029700005F09AFF2CB9A979286805F29C4205F068
:1029800037FF002285F894241046B0BD00000000F7
:1029900080B501F00F0C90F806E00CEBCC01BEF115
:1029A000010F00EB810101F814CF4FF0000C0B6117
:1029B0004FF00103CA60C1F814C04B7008BFCA6170
:1029C0000068724605F090FF002080BD0000000006
:1029D0002DE9F04F87B005688246284606F0A8F931
:1029E00010B107B0BDE8F08FDAF8000006F0D0F9BA
:1029F0000028F6D0D5F80808C0F30D20CAF8D40492
:102A0000DAF8000006F0C4F98007DAF8000003D510
:102A1000416901F00201416105F50061059106F08F
:102A2000B7F9C006DAF80000069535D5816921F0BE
:102A3000100181612C6A04F00F0000EBC001C4F3A7
:102A400043400AEB8101062801F5157512D00228D2
:102A50001BD147F6F07014EA000616D03409E96875
:102A60000698224606F098F9E86800EB1610E86030
:102A700008E000BF0AF29C410822069806F08CF993
:102A8000C4F30A14686920446861DAF800008169B7
:102A900041F010018161069D06F07AF9000340F1D2
:102AA000F980DAF8000006F04FF9002800F0F28013
:102AB00006464FF4306800244FF0000B0AF29C40A9
:102AC000049008E00BF1010B760808F1200804F1EE
:102AD000240400F0DF80F007F4D05FFA8BF9DAF815
:102AE0000000494606F04CF90746C00761D005EBE7
:102AF000080001218160DAF8000008EB0001036C96
:102B00008A689AF80650012D26D1150734D4950607
:102B100000F1B88043F20B05C4F65475AB42069D34
:102B200002D312F4004231D10AEB0402D2F874321B
:102B300009696FF3DF41A3EB0101C2F86812A4BB7E
:102B4000D2F86432002B00F0A380D2F8600208446F
:102B5000C2F8600229E000BF43F20B05C4F65475C9
:102B6000FF35AB4218D11004069D0FD490061CD53A
:102B70002020886019E000BF43F20B00069DC4F6D8
:102B80005470834215D312F4004012D04FF4004029
:102B9000886038070FD43DE0069D34B9DAF8641236
:102BA00019B90021049A05F023FE50464946FFF763
:102BB000E7FD38072ED505EB08000821816043F2B8
:102BC0000B01DAF80000C4F65471056C40448D42E4
:102BD00081680BD311F4004108D04FF400418160AB
:102BE000504600F06DFD069D0AE000BF504600F023
:102BF00067FD43F20B00C4F654708542069D09D36D
:102C00009AF80600012805D1DAF800000121049A9B
:102C100005F0EEFDF80607D4B8070BD4B80624D4A7
:102C2000B8047FF54FAF27E005EB08001021816065
:102C3000B807F3D56869000604D50599486840F4DB
:102C4000806048600AEB040090F85712012906D111
:102C5000002180F857125046494600F07DFB05EBF5
:102C6000080002218160B806DAD505EB08002021B2
:102C70008160B8047FF526AF05EB08004FF40051E2
:102C800081601FE720208860069D380793D4C1E744
:102C9000012187E7DAF8000006F07AF8400340F1F6
:102CA000E180DAF8000006F047F8002800F0DA804A
:102CB0000646069800F5106900250AF114000490F4
:102CC0000AF29C400290CDF80C9004E0760805F1E1
:102CD000010500F0C780F007F8D0EFB2DAF8000085
:102CE000394606F039F80446C0070BD1200735D421
:102CF000E00639D460063DD4A00741D42006E5D5CE
:102D000058E000BF059B05F00F004FF0010C09EBE8
:102D100045120CFA00F0596B21EA00005863C2F822
:102D200008C09AF80600012812D105EBC5000499E5
:102D300001EB8000D0E902121144C16045B900697D
:102D400030B9DAF800000121029A05F051FD00BF08
:102D500050463946FFF708FD2007C9D509EB451055
:102D600008218160E006C5D509EB4510102181607E
:102D70006006C1D509EB451040218160A007BDD593
:102D80000698294605F064FF05EBC500049901EBA0
:102D9000800010F8031F012905D100210170504661
:102DA000394600F0D5FA09EB451002218160200672
:102DB0007FF58CAF05EBC500049901EB8008D8E9DD
:102DC00004108142FFF482AFDAF800400A1AD8F802
:102DD00008309A4238BF134604EB451203F1030C46
:102DE000D2F818399BB2B3EB9C0F2BD302F51069C4
:102DF000D8F81010814223D9081A9AF80620D8E989
:102E000002B1584538BF8346009220461FFA8BF323
:102E10003A4606F06DFAD8F80C00D8F81410584469
:102E2000C8F80C0001EB0B00C8F814000BF103010B
:102E3000D9F8182092B2B2EB910FD9D2D8F810106D
:102E4000DDF80C9081423FF641AF05F00F00012103
:102E500001FA00F0D4F8341821EA0000C4F834086C
:102E600034E700BFDAF8000005F092FF00280DD427
:102E7000DAF8000005F08CFF000526D4DAF800002F
:102E800005F086FF000131D43CE000BF0599486899
:102E900020F0010048609AF8CC04012808D10020F5
:102EA0008AF8CC0400215046FFF7EAFB03E000BF9C
:102EB000504600F0E9FBDAF80000416901F00041FA
:102EC000416105F065FF0005D8D505988068C00709
:102ED00002D0504600F01CFCDAF80000416901F411
:102EE0000061416105F054FF00010BD5DAF80000E4
:102EF000416901F0006141619AF8CC1491B15046EA
:102F000000F006FCDAF8000005F042FFC0041AD415
:102F1000DAF8000005F03CFF8004DAF8000000F168
:102F20000D8126E101218AF8CC14406DC0F38300A5
:102F3000CAF8D0045046FFF7A3FBDAF8000005F00A
:102F400027FFC004E4D50599486820F001004860D7
:102F5000DAF80000102105F07BFE9AF80400010663
:102F600000F0BB80C1B200F00300042902D20021AE
:102F700068E000BF6FF06002002302EA41124FF6E2
:102F80007F370021069C00BFE61880339A4201F18A
:102F90000401C6F80879D6F8005925F40015C6F8DA
:102FA0000059C6F8087BD6F8005B25F40015C6F872
:102FB000005BD6F8005B45F00065C6F8005BC6F81C
:102FC0002879D6F8205925F40015C6F82059C6F8F6
:102FD000287BD6F8205B25F40015C6F8205BD6F8D0
:102FE000205B45F00065C6F8205BC6F84879D6F846
:102FF000405925F40015C6F84059C6F8487BD6F864
:10300000405B25F40015C6F8405BD6F8405B45F000
:103010000065C6F8405BC6F86879D6F8605925F4B3
:103020000015C6F86059C6F8687BD6F8605B25F4D1
:103030000015C6F8605BD6F8605B45F00065C6F821
:10304000605BA1D1002848D0069A4D0102F51063BB
:1030500002F5306203EB41164FF67F3702EB411465
:103060000128B7605E5926F400165E51A7605659D4
:1030700026F400165651565946F0006656512CD08B
:103080004E1C02284FEA461403EB461502EB461687
:10309000AF601D5925F400151D51B760175927F46D
:1030A00000171751175947F00060105115D0881CB0
:1030B0004FF67F36470103EB401102EB40108E6064
:1030C000D95921F40011D9518660D05920F400104B
:1030D000D051D05940F00060D051059F8421442246
:1030E000F86940F00110F8619AF80F0000284FF0DD
:1030F0000B0008BF142104BF42F22B0010227B58A2
:1031000018437850B85840F00B00B85038680AF2AD
:103110009C4220F4FE6038609AF80610DAF800004D
:1031200005F066FBDAF80000416901F48051416165
:1031300005F02EFE8004DAF800001AD504F070FFC6
:10314000DAF8000005F0E4FD8AF80700DAF800403C
:1031500001F0D6FA9AF807200146204606F03CF81E
:10316000504600F079FADAF80000416901F40051A4
:10317000416105F00DFE000706D4DAF8000005F005
:1031800007FE00060DD437E0504600F081FADAF869
:103190000000416901F00801416105F0F9FD0006F8
:1031A0002AD50699886920F0800088619AF8040081
:1031B000022821D30AF515740AF11405012640F2FC
:1031C0007B2703E001362437864215D21AF8071010
:1031D0000129F7D106F00F00320600EBC00005EB25
:1031E000800158BF04EB8001DAF8000005F0A0FC74
:1031F0009AF80400E6E700BFDAF8000005F0C8FD21
:10320000C0024DD4DAF8000005F0C2FD8002069D30
:1032100040F17E809AF80410022928D305F5326027
:1032200001390AF51F72012306E000BF013900F1E0
:10323000200002F124021AD007681678012EF5D179
:10324000B7F1FF3FF2DCDAF8D46486EA1747FF07EC
:10325000ECD102F8013CAF6947F08007AF616F69BC
:103260003F06E3D40599486840F400704860DAF8F6
:103270000000416901F40011416105F089FD400041
:103280004CD55046FFF76CFADAF80000416901F0BE
:103290008041416105F07CFD40077FF5A2AB44E031
:1032A0009AF80400022827D306990AF1140401F5BC
:1032B00012650AF13B064FF00108012706E000BF46
:1032C00001372035874206F1240615D22968727825
:1032D000012AF5D1B1F1FF3FF2DC07F00F0086F8CB
:1032E000008000EBC00004EB8001DAF8000005F07C
:1032F0001FFC9AF80400E3E7DAF80000416901F4E2
:103300008011416105F044FD8002069D3FF582AFCA
:10331000DAF8000005F03CFD4000B2D4DAF8000015
:1033200005F036FD40077FF55CABDAF80000446835
:10333000610704D55046FFF72FFADAF8000041681C
:103340002143416007B0BDE8F08F0000000000009D
:10335000D0F8E00404F0ECB9D0F8E00404F000BACE
:10336000002800F02781F0B581B0044690F895045C
:1033700028B9002084F89404204600F031F9032095
:1033800084F89504206805F02BFAD4E90001267C26
:10339000D4E90223009604F053FE002840F0048193
:1033A0002068002105F050FD002840F0FD8094F8D1
:1033B00004E0BEF1000F00F0EE80BEF1040F0EF04D
:1033C000030C4FF0000241D30EF0FC03A4F1900077
:1033D00003250121EE1E80F8A460A0F8BE60AE1E99
:1033E00080F8C8606F1CA0F8E2606E1E80F8EC6088
:1033F0009F42A0F8066105F1040680F8A51080F848
:10340000A820C0E92B22C0F8B42080F8C91080F8A9
:10341000CC20C0E93422C0F8D82080F8ED1080F824
:10342000F020C0E93D22C0F8FC2080F8111180F89E
:103430001051A0F82A51354680F81421C0E94622DF
:10344000C0F8202100F19000C4D1F21EBCF1000FA1
:1034500032D002EBC20104F114000123BCF1010FD0
:1034600000EB810500F821204FF000016B706A83AA
:103470002971C5E9021129611ED0551CBCF1020F4A
:1034800005EBC50600EB860700F826507B707D83B0
:103490003971C7E9021139610ED0911C012501EB88
:1034A000C10200EB820300F8221000205D705983F6
:1034B0001871C3E902001861BEF1000F6BD0BEF1B4
:1034C000040F4FF0000236D30EF0FC000323214618
:1034D000DF1E81F854729F1E81F878725F1E81F89A
:1034E0009C725F1C1D1D81F85522874281F858226D
:1034F000C1E99722C1F8642281F8792281F87C22FF
:10350000C1E9A022C1F8882281F89D2281F8A02279
:10351000C1E9A922C1F8AC2281F8C12281F8C032E8
:103520002B4681F8C422C1E9B222C1F8D02201F1B0
:103530009001CDD1EA1EBCF1000F2CD002EBC203EA
:1035400004F515700021BCF1010F00EB830700F8B2
:10355000232079703971C7E9021139611BD0531CDE
:10356000BCF1020F03EBC30700EB870600F827301E
:1035700071703171C6E9021131610CD0911C0027C4
:1035800001EBC10200EB820300F822105F701F7193
:10359000C3E902771F61D4E90001277CD4E9022343
:1035A000009704F0C5FE38B1022084F8950401208C
:1035B00001B0F0BD0120704700206074012084F844
:1035C0009504207B012802D12046FFF745F82068AA
:1035D00004F09EFE002001B0F0BD000000000000DD
:1035E00010B5B0B002A9044601F10800B021FDF702
:1035F0001EF800212068C4F20401884202D030B0D5
:1036000010BD00BF002003904FF4802002904FF4C3
:103610004010239002A800F007FA08B1FDF738FC2B
:1036200000F0BAF844F2D8400022C5F60200016862
:1036300041F0007101600068002100F0007001900D
:1036400001984D20FEF7C8FF4D20FEF7B1FF30B0C6
:1036500010BD00000000000010B50446C07928B17C
:10366000022801D0FDF714FC012100E00021D4F86C
:10367000E00404F001F9D4F8E004BDE8104004F0DF
:10368000AFB8000000000000D0F8E00404F0D8B8A3
:10369000D0F8E00404F0E0B890F89424012A01D1B5
:1036A0000220704710B5012280F89424417404462A
:1036B0000268104605F07CFD002084F8940410BDDB
:1036C000D0F8E02400F29C41104604F0EDB8000070
:1036D00010B5044690F89404012801D1022010BDD1
:1036E0002068012184F89414C168490606D5617BDD
:1036F000012903D1816B41F48031816305F0A0FA87
:10370000206804F0F5FD002084F8940410BD00004A
:1037100010B50446D0F8E00404F022F92068D0F88F
:10372000001E41F00101C0F8001EE07A002808BF29
:1037300010BD4EF61050CEF20000016841F00601B7
:10374000016010BD00000000B0B544F60C05C5F6E0
:10375000020529684907296806D401F00701081AFB
:1037600018BF0120B0BD00BF21F007010843286049
:10377000FEF782FE044600BF55F8080C800407D40B
:10378000FEF77AFE001BB0F57A7FF5D90120B0BDB7
:103790000020B0BD0000000044F60C00C5F6020099
:1037A000016841F080710160704700000000000076
:1037B00080B500F0A5FF44F220414AF20472C5F63C
:1037C0000201C0F600020968C1F30211515C01F068
:1037D0001F01C84080BD000080B544F2384EC5F6D8
:1037E000020E5EF8103C5EF8101C5EF80C2CC1F363
:1037F000053CDEF80410BCF1000F19D0C9089FED9C
:103800003C1AD20601EAE27103F003026FF35F3162
:1038100000EE101AB8EE400ADFE802F00222102291
:103820005EF8381C89060DD49FED331A18E000BFEE
:1038300000218160C0E9001180BD00BF9FED2D1AFD
:103840000EE000BF5EF8381C49F20002C0F2D03230
:10385000C1F3C10122FA01F101EE101AB8EE411ACA
:10386000DEF800109FED253A6FF35F2102EE101A8B
:10387000DEF80010C1F34621B8EE422A013100EE15
:10388000032A00EE10CAB7EE003AB8EE400A81EE05
:10389000000A32EE031A20EE010A01EE101AB8EE09
:1038A000411A80EE011ABCEEC11A80ED001ADEF852
:1038B0000010C1F30641013101EE101AB8EE411AB1
:1038C00080EE011ABCEEC11A80ED011ADEF800107C
:1038D000C1F30661013101EE101AB8EE411A80EE13
:1038E000010ABCEEC00A10EE101A816080BD00BF54
:1038F0000024744A001BB74B0024744C00000039AC
:1039000080B544F2404EC5F6020E5EF8183C5EF8F3
:10391000181C5EF8142CC1F3055CDEF80410BCF131
:10392000000F19D0C9089FED3C1AD20501EAE271D7
:1039300003F003026FF35F3100EE101AB8EE400A95
:10394000DFE802F0022210225EF8401C89060DD446
:103950009FED331A18E000BF00218160C0E900111B
:1039600080BD00BF9FED2D1A0EE000BF5EF8401C29
:1039700049F20002C0F2D032C1F3C10122FA01F1D2
:1039800001EE101AB8EE411ADEF800109FED253A4C
:103990006FF35F2102EE101ADEF80010C1F346212A
:1039A000B8EE422A013100EE032A00EE10CAB7EE4B
:1039B000003AB8EE400A81EE000A32EE031A20EE19
:1039C000010A01EE101AB8EE411A80EE011ABCEE9F
:1039D000C11A80ED001ADEF80010C1F30641013172
:1039E00001EE101AB8EE411A80EE011ABCEEC11AAF
:1039F00080ED011ADEF80010C1F30661013101EE1D
:103A0000101AB8EE411A80EE010ABCEEC00A10EEA0
:103A1000101A816080BD00BF0024744A001BB74BA0
:103A20000024744C000000392DE9F0470446C078AA
:103A300044F22C480007C5F6020828D5606E4FEA0C
:103A4000305103292AD8DFE801F0030B131B00BF14
:103A5000D8F8001041F40031C8F8001010E000BFA1
:103A600004F10800022102F083F8064680B906E05E
:103A700004F12800022102F00FF9064640B9606EF9
:103A8000D8F8241021F440110843C8F82400002677
:103A90006078C00706D135462FE000BF0126607868
:103AA000C007F8D0A06D04283ED83546DFE800F006
:103AB00004140E0B0B0000BFD8F80000354640F48C
:103AC0000030C8F800002F46C5B90DE004F1280009
:103AD000002102F0E1F804E004F10800002102F006
:103AE00047F805462F464DB9D8F82400A16D20F0BF
:103AF000070000250843C8F82400374660784007CF
:103B00003AD5D4F8A4004FEA7050052818D8DFE859
:103B100000F0031D11232323D8F8000040F40030E7
:103B2000C8F8000018E000BF0125012760784007B1
:103B3000E7D421E004F12800002102F0ADF80AE00A
:103B400001250126607800071AD44FE004F108002F
:103B5000002102F00DF805462E461DB160780007E1
:103B60000ED443E0D8F82C00D4F8A41020F4600060
:103B700000250843C8F82C003E466078000735D57C
:103B8000D4F8A8004FEA3060052813D8DFE800F029
:103B900004180C1E1E1E00BFD8F8000040F40030B0
:103BA000C8F8000012E000BF04F12800002102F074
:103BB00073F80AE001250127E07880071AD434E081
:103BC00004F10800002101F0D3FF05462F461DB186
:103BD000E07880070ED428E0D8F82C00D4F8A8109C
:103BE00020F0E06000250843C8F82C003746E07854
:103BF00080071AD5E06C4FEA3010032838D8DFE888
:103C000000F009032D0900BFD8F8000040F400308F
:103C1000C8F800002E464DB9D8F82000E16C20F01D
:103C2000300000250843C8F820003E466078C006F2
:103C300039D5E06D4FEA3030042847D8DFE800F08E
:103C400004221C0A0A0000BFD8F8000040F400302B
:103C5000C8F800002F463DBB1CE000BF04F108007F
:103C6000022101F085FF0546002D2E46DED1D3E767
:103C700001250126DAE700BF04F12800002102F047
:103C80000BF804E004F10800002101F071FF054683
:103C90002F464DB9D8F82400E16D20F4E04000250E
:103CA0000843C8F8240037466078800635D5206E72
:103CB0004FEA3040052815D8DFE800F0041A0E045A
:103CC000040400BF2E46DDB91EE000BF0125012718
:103CD00060788006EBD420E004F12800012101F097
:103CE000DBFF0AE0012501266078400619D449E08F
:103CF00004F10800012101F03BFF05462E461DB1ED
:103D0000607840060DD43DE0D8F82400216E20F400
:103D1000E02000250843C8F824003E4660784006AD
:103D200030D5D4F8AC004FEA307005280ED8DFE863
:103D300000F00313070303032F46ADB918E000BFDB
:103D400004F12800012101F0A7FF0AE00125012765
:103D5000607800061AD43CE004F10800012101F06B
:103D600007FF05462F461DB1607800060ED430E0EF
:103D7000D8F82C00D4F8AC1020F0E040002508431F
:103D8000C8F82C0037466078000622D5E06E58B19E
:103D9000B0F1005F0CD0B0F1805F37D1D8F80000EF
:103DA00040F40030C8F800002E469DB908E000BF7E
:103DB00004F10800012101F0DBFE05462E464DB955
:103DC000D8F82400E16E20F0405000250843C8F8E0
:103DD00024003E46E078C0071DD0A06C032855D8CB
:103DE000DFE800F008024A08D8F8000040F400308C
:103DF000C8F80000A9467DB9D8F82000A16C20F0D1
:103E0000030000250843C8F8200004E0012501262E
:103E1000E078C007E1D1B146A078400602D44F4611
:103E200018E000BFD8F8D40340F48070C8F8D40379
:103E3000FEF722FB064600BFD8F8D403C00507D41E
:103E4000FEF71AFB801B6428F6D90325032701E03F
:103E50002F46FDB12078C00700F06F80A06F4FEAB9
:103E6000F00005284ED8DFE800F0035347030303B2
:103E7000002D2E4654D157E004F10800022101F034
:103E800077FE0546002DA946C6D1B5E701254FF0BE
:103E90000109C1E7D8F84410D4F8B000414011F44A
:103EA000407F11D0D8F84410D8F8442042F4803232
:103EB000C8F84420D8F8442021F4407122F480321C
:103EC000C8F84420C8F84410B0F5807F40F0D08294
:103ED000FEF7D2FA064641F2883A0325032700BFCF
:103EE000D8F84400800700F1C182FEF7C5FA801BB4
:103EF0005045F5D9AEE700BF04F12800012101F0DB
:103F0000CBFE0AE0012501262078800719D446E07F
:103F100004F10800012101F02BFE05462E461DB1DB
:103F2000207880070DD43AE0D8F82800A16F20F05F
:103F3000380000250843C8F828003E46207880074E
:103F40002DD5606F05280FD8DFE800F004140804B1
:103F5000040400BF2F46ADB918E000BF04F12800EB
:103F6000012101F099FE0AE0012501272078400790
:103F700019D447E004F10800012101F0F9FD0546DC
:103F80002F461DB1207840070DD43BE0D8F828001B
:103F9000616F20F0070000250843C8F82800374665
:103FA000207840072ED5D4F8900005280ED8DFE8F9
:103FB00000F00313070303032E46ADB918E000BF5A
:103FC00004F12800012101F067FE0AE00125012625
:103FD000207880061AD44BE004F10800012101F09A
:103FE000C7FD05462E461DB1207880060ED43FE061
:103FF000D8F82C00D4F8901020F0070000250843D2
:10400000C8F82C003E462078800631D5D4F88C00C4
:104010004FEA307005280FD8DFE800F004140804D8
:10402000040400BF2F46ADB918E000BF04F128001A
:10403000022101F031FE0AE0012501272078400627
:104040001AD44BE004F10800002101F091FD05466F
:104050002F461DB1207840060ED43FE0D8F8280046
:10406000D4F88C1020F0E04000250843C8F8280060
:1040700037462078400631D5D4F898004FEAB02072
:1040800005280FD8DFE800F004140804040400BF7A
:104090002E46ADB918E000BF04F12800022101F05E
:1040A000FBFD0AE001250126207800061AD44EE027
:1040B00004F10800002101F05BFD05462E461DB10C
:1040C000207800060ED442E0D8F82C00D4F89810DE
:1040D00020F4E05000250843C8F82C003E46207824
:1040E000000634D5D4F89C004FEA7030052815D866
:1040F000DFE800F0041A0E04040400BF2F46E5B107
:104100002068010727D4C1063ED4000355D477E0C8
:1041100004F12800022101F0BFFD0AE0012501277A
:1041200020680107EFD516E004F10800002101F036
:104130001FFD0546002D2F46E2D1D8F82C00D4F8FB
:104140009C1020F4604000250843C8F82C00374636
:1041500020680107D7D5D4F88000B0F5805F09D179
:1041600004F12800022101F097FD002818BF012763
:10417000D4F88000D8F8281021F440510843C8F83A
:1041800028002068C106C0D5D4F89400B0F5807F1F
:1041900009D104F12800022101F07EFD002818BF9A
:1041A0000127D4F89400D8F82C1021F4407108436A
:1041B000C8F82C002068000322D5D4F8A000B0F580
:1041C000003F11D0B0F5803F08D0002844D104F161
:1041D0000800002101F0CCFC05E000BF04F128003C
:1041E000022101F059FD05462E4655B9D8F82C009C
:1041F000D4F8A01020F4403000250843C8F82C0063
:104200003E46A07840072CD5D4F88400B0F5401F76
:104210000BD0B0F5001F0BD0B0F5801F2AD1D8F815
:10422000000040F40030C8F800002F46D5B907E080
:1042300004F12800012101F02FFD05462F468DB91C
:10424000D8F82800D4F8841020F440100025084342
:10425000C8F8280005E000BF01250126A078400726
:10426000D2D43746A078C00709D13E4621688800DD
:1042700015D532E001250127A078C007F5D0206DC3
:10428000B0F5803F10D018BBD8F8000040F40030E3
:10429000C8F800002E4685B1216888001DD46068EA
:1042A0008A0326D465E000BF04F10800022101F072
:1042B0005FFC0546002D2E46EED1D8F82000216D7A
:1042C00020F4803000250843C8F82000CDE700BF67
:1042D0000125012621688800E1D504F1280002218A
:1042E00001F0DAFC002818BF0126D4E900108A0387
:1042F0003FD5E26F6FF0010303EB3223022B0BD3A8
:104300004FEA322343B1012B40F0AA80D8F80030A5
:1043100043F40033C8F8003025B3CA022CD48A0213
:1043200034D44A003CD4CA0F49D1090251D4C10740
:104330005AD1810763D441076CD4010776D4C106F2
:1043400000F18080800607D504F12800022101F0E9
:10435000A3FC002818BF0125002D18BF0125284601
:10436000BDE8F087D8F8283023F440731A43C8F822
:1043700028203546CA02D2D5D8F82420236F22F04F
:1043800000421A43C8F824208A02CAD5D8F824204B
:10439000A36E22F080721A43C8F824204A00C2D5C6
:1043A00058F81C2C22F4004248F81C2CD4F8B420F5
:1043B00058F81C3C1A4348F81C2CCA0FB5D0D8F842
:1043C0002020636D22F040521A43C8F820200902D1
:1043D000ADD5D8F82810D4F8882021F44001114335
:1043E000C8F82810C107A4D004F10800002101F08A
:1043F000BFFB002818BF0546606881079BD504F104
:104400000800012101F0B4FB002818BF05466068D0
:10441000410792D504F10800022101F0A9FB002810
:1044200018BF0546606801077FF589AF04F12800D1
:10443000002101F031FC002818BF05466068C10664
:104440007FF580AF04F12800012101F025FC002850
:1044500018BF0546606880063FF576AF7CE700BF71
:104460000125CA027FF55BAF86E700BFD4F8B00034
:104470004FF6CF7358F81C2CC0F2FF0300F44071C4
:1044800022F47C5203EA10136FF31F30B1F5407F22
:1044900008BF1A43002548F81C2CD8F844100843DC
:1044A000C8F84400FFF7BBBC2DE9F04381B00028F9
:1044B00000F0208142F200090446C5F20029D9F833
:1044C000000000F00F0081420DD9D9F8000020F063
:1044D0000F000843C9F80000D9F8000000F00F00F1
:1044E000884240F00781206844F218464207C5F62A
:1044F00002060AD52269336803F070039A4204D990
:10450000336823F070031A43326002070AD56269E8
:10451000736803F070039A4204D9736823F0700340
:104520001A437260C2060AD5A269736803F4E06395
:104530009A4204D9736823F4E0631A4372608206D6
:104540000AD5E269B36803F070039A4204D9B368EC
:1045500023F070031A43B26010F002020AD0E3683D
:10456000376807F00F07BB4204D9376827F00F07F9
:104570003B433360C3073FD0306820F47062D4E916
:1045800001031A433260012856F8182C0AD0032878
:1045900004D002280AD192030BD4ABE0920108D4D4
:1045A000A8E000BFD20504D4A4E000BF520740F148
:1045B000A180884656F8081C21F00701084346F8F8
:1045C000080CFDF759FF054641F2883756F8080CEC
:1045D000616800F03800B0EBC10F09D0FDF74CFF67
:1045E000401BB842F2D9032001B0BDE8F08300BF00
:1045F0002068414600F0020252B1E268336803F0DD
:104600000F039A4204D2336823F00F031A43326037
:10461000D9F8002002F00F0291420CD2D9F8002004
:1046200022F00F020A43C9F80020D9F8002002F056
:104630000F028A425ED141070AD52169326802F031
:104640007002914204D2326822F07002114331604C
:1046500001070AD56169726802F07002914204D2C2
:10466000726822F0700211437160C1060AD5A16917
:10467000726802F4E062914204D2726822F4E0624D
:104680001143716080060AD5E069B16801F07001DC
:10469000884204D2B16821F070010843B06000F094
:1046A000B7F831684AF20472C0F60002C1F3032180
:1046B000515C336803F00F0301F01F01D25C20FA54
:1046C00001F102F01F0040F20C02C2F2004221FA96
:1046D00000F0106040F2040040F20802C2F2004014
:1046E000C2F200420068116001B0BDE8F043FDF77E
:1046F0000FBF00BF012001B0BDE8F0830000000043
:1047000080B500F085F844F218414AF20473C5F60A
:104710000201C0F600030A68C2F303229A5C09682A
:1047200001F00F0102F01F02595C20FA02F201F0C1
:104730001F0040F20C01C2F2004122FA00F00860B2
:1047400040F20801C2F200410A6080BD0000000092
:1047500080B500F05DF844F2184C4AF20473C5F6D7
:10476000020CC0F60003DCF80020C2F303229A5CBE
:10477000DCF8001001F00F0102F01F02595CD0407C
:1047800040F20C02C2F2004201F01F0120FA01F1D6
:10479000116040F20802C2F200421060DCF804002E
:1047A000C0F30210185C00F01F0021FA00F080BD79
:1047B00080B500F02DF844F2184C4AF20473C5F6A7
:1047C000020CC0F60003DCF80020C2F303229A5C5E
:1047D000DCF8001001F00F0102F01F02595CD0401C
:1047E00040F20C02C2F2004201F01F0120FA01F176
:1047F000116040F20802C2F200421060DCF80400CE
:10480000C0F30220185C00F01F0021FA00F080BD08
:1048100044F20041C5F602010869C0F3C200032852
:1048200016D002280ED0002832D10868800649F23E
:104830000000C0F2D03058BF70470968C1F3C10111
:10484000C840704743F20060C0F26E10704700BF6E
:104850008B6A886AD1F82CC04A6BC0F30510E8B1A6
:10486000C2F3CC0203F0030300EE102A9FED2A1AD4
:10487000B8EE400A20EE010A9FED281ADFE803F0A7
:10488000022110210A6892060ED49FED261A18E024
:1048900040F60010C0F23D00704700BF0020704796
:1048A0009FED1F1A0DE000BF0A6849F20003C0F235
:1048B000D033C2F3C10223FA02F201EE102AB8EE9D
:1048C000411A0A6B9FED183A6FF35F2202EE102A2D
:1048D0005FEACC7203FE000A03EE100A086BB8EE22
:1048E000422AC0F34620B8EE433A013030EE020AC5
:1048F000B7EE002A81EE031A30EE020A21EE000A1A
:1049000001EE100AB8EE411A80EE010ABCEEC00AB0
:1049100010EE100A704700BF000000390024744AEE
:10492000001BB74B0024744C000000000000000086
:1049300070B3F0B581B00446007844F20046C00779
:10494000C5F6020626D1207880076AD5306910F0B6
:104950003801B06A42D0182908BF5FEA80703DD0A4
:10496000E0683168002800F02D8121F0190108432A
:104970003060FDF781FD0546306840074AD4FDF7F9
:104980007BFD401B0228F7D9032001B0F0BD00BF1A
:1049900001207047306900F03801B06A102905D055
:1049A00018290BD100F00300022807D130688003DA
:1049B000C9D560680028C6D1AAE000BF6168306828
:1049C000002900F03981B1F5A02F00F02D81B1F55B
:1049D000803F40F0478140F4803049E13068400733
:1049E000E06802D5002800F09380316821F01901B9
:1049F00008433060FDF740FD054600BF30684007C2
:104A000008D4FDF739FD401B02284FF00300F5D90B
:104A100001B0F0BD7068216920F0FE4040EA0160FD
:104A200070602078C0061AD5306900F03801B06A8D
:104A3000082907D0182940F0858000F003000128DC
:104A400040F080803068C00502D5E06980285FD1E1
:104A5000F068216A20F07C5040EA0160F060207824
:104A600000073FD42078800656D42078400700F114
:104A70008180656A9DB3306900F03800182840F0E5
:104A80001981012DB16A306B42D001F00302A36A93
:104A90009A423DD1C1F30511E26A914238D10146F3
:104AA000226B6FF35F21013A914231D1C0F346226C
:104AB000616B01398A422BD1C0F30642A16B0139E7
:104AC0008A4225D1C0F30660E16B013988421FD1CB
:104AD000706BA16CC0F3CC00814240F0A581002036
:104AE00001B0F0BD60690028706F59D040F001003E
:104AF0007067FDF7C1FC0546706F8007B2D4FDF703
:104B0000BBFC401B0228F7D9032001B0F0BD00BF59
:104B1000012001B0F0BD00BFA0690028306871D04D
:104B200040F480503060FDF7A7FC054630688004F3
:104B30009BD4FDF7A1FC401B0228F7D9032001B04C
:104B4000F0BD00BFE0690028306800F0A18040F0AF
:104B500080003060FDF790FC054600BF3068C0055E
:104B60003FF576AFFDF788FC401B02284FF00300AD
:104B7000F4D94DE7D6F8000440F48070C6F800047C
:104B8000FDF77AFC054600BFD6F80004C0052BD41B
:104B9000FDF772FC401B6428F6D9032001B0F0BD7C
:104BA00020F001007067FDF767FC0546706F800715
:104BB0007FF558AFFDF760FC401B02284FF0030063
:104BC000F4D925E721F001003060FDF755FC0546DA
:104BD000306840077FF525AFFDF74EFC401B0228EB
:104BE0004FF00300F4D913E7A168306F002900F0FB
:104BF0008B80052900F08080012940F09D8040F0E5
:104C000001009FE020F480503060FDF735FC054640
:104C1000306880047FF529AFFDF72EFC401B022889
:104C20004FF00300F4D9F3E640F4802030603068A0
:104C300040F480301CE000BF20F4803030603068E9
:104C400020F480203060FDF717FC054630688003B3
:104C50007FF579AEFDF710FC401B64284FF0030090
:104C6000F4D9D5E620F480303060306820F480201C
:104C70003060FDF701FC0546306880033FF563AE08
:104C8000FDF7FAFB401B6428F6D9032001B0F0BD04
:104C900020F080003060FDF7EFFB05463068C0056E
:104CA0007FF5DDAEFDF7E8FB401B02284FF0030067
:104CB000F4D9ADE6306820F080703060FDF7DCFBA1
:104CC000022D05460CD100BF306880014CD5FDF7A0
:104CD000D3FB401B02284FF00300F5D998E600BF34
:104CE000306880017FF5FBAEFDF7C6FB401B022854
:104CF0004FF00300F4D98BE640F004003067306FCA
:104D000040F001001EE000BF20F001003067306F6E
:104D100020F004003067FDF7AFFB054641F288370D
:104D2000306F80077FF5A5AEFDF7A6FB401BB842AC
:104D30004FF00300F4D96BE620F001003067306FCC
:104D400020F004003067FDF797FB054641F28837F5
:104D5000306F80073FF58DAEFDF78EFB401BB842EC
:104D60004FF00300F4D953E604F12807B06A40F28B
:104D7000F33188438ECF0843591E40EA02104FF4A6
:104D80007E426FF35F21B06202EB47204FF4FE02D8
:104D900080B2E36B0844A16B02EB01414FF0FE428D
:104DA00001F4FE0102EB0362084402F0FE410844F4
:104DB0003063F06A4FF6F87120F00100F062706B1A
:104DC000A26C884340EAC2007063F06A216C20F054
:104DD0000C000843F062F06A616C20F002000843A6
:104DE000F062F06A40F48030F062F06A40F4003023
:104DF000F062F06A40F48020F062F06A40F0010056
:104E0000F062306840F080703060FDF735FB04469A
:104E1000306880013FF563AEFDF72EFB001B0228D2
:104E20004FF00300F4D9F3E5F06A20F00100F062DE
:104E3000FDF722FB0546FDF71FFBA842FBD0706B78
:104E40004FF6F871A26C884340EAC2007063F06AC2
:104E500040F00100F062002001B0F0BD0000000051
:104E6000411E0020B0EB116F02D00120704700BF3F
:104E70004EF21002F023CEF2000251604EF62351A2
:104E8000CEF200010B7007219060116070470000A6
:104E900070470000000000007047000000000000A4
:104EA000704700000000000090F83C20012A4FF0FD
:104EB000020266D0B0B580F83D2040F2004C026896
:104EC000C4F2010C42F4806363455368D2F808E0F1
:104ED00002BF23F470034C6823434DF6FF740D6842
:104EE000C4F2000423F07003A24243EA05035360B6
:104EF00014DC40F2FF73C4F200039A4222DD40F654
:104F00000003C4F200039A422ED040F60043C4F2DC
:104F100000039A4228D041F6000321E04FF6FF73C8
:104F2000C4F200039A4213DD0023C4F201039A4243
:104F30001AD044F20003C4F201039A4214D062452D
:104F400012D016E0B2F1804F0ED040F2004307E0DD
:104F50004EF20003C4F200039A4205D04EF2004321
:104F6000C4F200039A4204D12EF0800389681943E9
:104F700091600022012180F83D1080F83C20BDE8BE
:104F8000B04010467047000060B310B5044690F87A
:104F90003D0028B9002084F83C00204600F024F8A9
:104FA000022084F83D002068211D00F0E1FF01206F
:104FB00084F8480084F83E0084F83F0084F84000FC
:104FC00084F8410084F8420084F8430084F84400E7
:104FD00084F8450084F8460084F8470084F83D00D2
:104FE000002010BD0120704710B582B040F60001CE
:104FF0000068C4F20001884214D040F20041C4F2BB
:105000000001884228D144F2E8401D24C5F6020080
:10501000016841F002010160006800F002000190A7
:1050200001980DE044F2E8401E24C5F60200016834
:1050300041F004010160006800F004000090009855
:10504000002100222046FDF7C7FA204602B0BDE845
:105050001040FDF7ADBA00BF02B010BD0000000067
:1050600090F83D10012927D1022180F83D100168F8
:105070004DF6FF70C4F200008142C86840F00100A4
:10508000C8601BDC40F2FF70C4F2000081422DDDDD
:1050900040F60000C4F2000081423DD040F60040DE
:1050A000C4F20000814237D041F60000C4F2000093
:1050B000814231D03CE000BF012070474FF6FF70C5
:1050C000C4F2000081421BDD0020C4F201008142D5
:1050D00022D044F20000C4F2010081421CD040F210
:1050E0000040C4F20100814216D021E0B1F1804FAE
:1050F00012D040F20040C4F2000081420CD017E010
:105100004EF20000C4F20000814205D04EF2004091
:10511000C4F2000081420BD107228868C0F201026C
:1051200002400020062A18BFB2F5803F00D1704728
:10513000086840F00100086000207047000000008F
:1051400090F83C20012A4FF0020200F0AA8080B5BE
:1051500080F83D208822D0F800C0CFF6CE72DCF86F
:1051600008301A40CCF808200B686F2B0EDDB3F125
:10517000101F37DAB3F5005F6EDA702B00F0B680DF
:10518000B3F5805F00F08480D8E000BF2F2B33DDC3
:105190004F2B39DC302B6FD0402B40F0CF80D1F833
:1051A00004E0C968DCF82030DCF8202022F001029D
:1051B000CCF82020DCF8182022F0F00242EA01119D
:1051C00023F00A02CCF8181042EA0E01CCF82010A5
:1051D0004FF68872DCF80810CFF6CF7211404731D5
:1051E00054E000BF2F21C0F210018B423ADCB3F132
:1051F000101F41D020213BE0002B18BF102B3BD0CB
:10520000202B39D09AE000BF502B4DD0602B40F0BE
:105210009580D1F804E0C968DCF82030DCF8202063
:1052200022F01002CCF82020DCF8182022F4704282
:1052300042EA013123F0A002CCF8181042EA0E1124
:10524000CCF820104FF68872DCF80810CFF6CF7239
:10525000114067311AE000BF5CD0B3F5801F0BD05E
:105260006CE000BF3021C0F210018B4204D040211D
:10527000C0F210018B4261D14FF68872DCF8081041
:10528000CFF6CF721140194341F00701CCF8081056
:105290000022012180F83D10002180F83C10BDE87B
:1052A00080401046704700BFD1F804E0C968DCF8C0
:1052B0002030DCF8202022F00102CCF82020DCF89D
:1052C000182022F0F00242EA011123F00A02CCF881
:1052D000181042EA0E01CCF820104FF68872DCF864
:1052E0000810CFF6CF7211405731CFE701F1040E0D
:1052F0009EE80C40DCF808101A4321F47F4142EA92
:105300000E221143CCF80810DCF8081041F07701A8
:10531000BCE700BF01F1040E9EE80C40DCF8081069
:105320001A4321F47F4142EA0E221143CCF80810BF
:10533000DCF8081041F48041A8E700BF0122A8E78B
:105340007047000000000000F0B581B0044600681E
:10535000C5680669B10717D515F0020114D06FF0C2
:1053600002010161012121778069800704D0204674
:10537000FFF7E6FF06E000BF204600F09DF820465C
:1053800000F09EF800202077700719D515F0040072
:1053900016D020686FF00401016102212177806935
:1053A00010F4407F04D02046FFF7CAFF06E000BF9C
:1053B000204600F081F8204600F082F80020207797
:1053C000300717D515F0080014D020686FF00801D9
:1053D000016104212177C069800703D02046FFF7CF
:1053E000AFFF05E0204600F067F8204600F068F8BF
:1053F00000202077F00619D515F0100016D020688F
:105400006FF01001016108212177C06910F4407F1D
:1054100004D02046FFF794FF06E000BF204600F0CE
:105420004BF8204600F04CF800202077F00718BF1A
:1054300015F0010006D020686FF0010101612046DF
:1054400000F042F805F0800716F4025F18BF002F45
:1054500002D1F00509D410E020686FF40251016117
:105460002046FFF719FDF00507D537B120686FF426
:10547000807101612046FFF70BFD700609D515F01C
:10548000400006D020686FF040010161204600F026
:105490006FF8B0060CD515F0200009D020686FF029
:1054A00020010161204601B0BDE8F040FFF7F8BCE3
:1054B00001B0F0BD000000007047000000000000D7
:1054C000704700000000000040F200410068C4F294
:1054D0000001884218BF704710B540F2601041F6D5
:1054E000C474C2F20040C2F20044017894ED080A8C
:1054F000A1B190ED021A94ED4C2A90ED013A32EEF2
:10550000412A30EE434A33EE020A94ED093A34EE72
:10551000011A94ED4D2A9FED144A07E09FED132ADE
:1055200094ED4C1AB0EE424AB0EE423A0020C4F874
:10553000580141F674002146C2F2004084ED100A81
:1055400084ED112A84ED124A84ED541A84ED553A03
:1055500003F0EEFF41F6141004F58871C2F200402A
:10556000BDE8104003F0E4BF9A99993E00000000A6
:10557000704700000000000090F88410012901D15C
:10558000022070472421C0F8881001680A680B685F
:1055900022F0005223F001030B60002343660A60EF
:1055A0002021C0F8881080F8843000207047000067
:1055B00090F88420012A01D10220704770B524227E
:1055C000C0F888200268D0F864E0BEF1000FD2F87D
:1055D00000C0136823F001031360936823F0606335
:1055E00041EA0301916019D091684AF23C7E9368C8
:1055F000C0F6000E5B0F4AF24475C1F34266C0F676
:1056000000051EF80340E95C2301B3FBF1F11EF82D
:105610000630AE5D1B01B3FBF6F301E0012101236F
:10562000A0F86A102021A0F86830C2F800C0C0F8C5
:105630008810002180F88410002070BD0000000058
:1056400090F88420012A01D10220704770B52422ED
:10565000C0F888200268D0F864E0BEF1000FD2F8EC
:1056600000C0136823F001031360936823F06043C4
:1056700041EA0301916019D091684AF23C7E936837
:10568000C0F6000E5B0F4AF24475C1F34266C0F6E5
:1056900000051EF80340E95C2301B3FBF1F11EF89D
:1056A0000630AE5D1B01B3FBF6F301E001210123DF
:1056B000A0F86A102021A0F86830C2F800C0C0F835
:1056C0008810002180F88410002070BD00000000C8
:1056D00010B5D8B10446D0F8880028B9002084F865
:1056E0008400204600F028F82420C4F888002068B0
:1056F000A16A0268002922F00101016002D020465F
:1057000000F0F2FC204600F017FE08B1012010BDA9
:105710002068416821F490414160816821F02A01AC
:105720008160016841F0010101602046BDE8104040
:1057300000F04ABD00000000B0B5B6B0044602A8B3
:105740000830B02100253195CDE93455CDE93255E9
:10575000FAF76DFF41F200012068C4F201018842AE
:1057600002D036B0B0BD00BF0120029002A8039560
:10577000FEF75AF908B1FBF78BFB44F2E040C5F69F
:105780000200016941F010010161016901F010019D
:1057900001910199016841F001010160006831A99E
:1057A00000F00100019001984FF4C0603190022098
:1057B00032900020CDE93300072035900020C5F657
:1057C0000200FCF77DFD36B0B0BD00000000000017
:1057D000FEE700000000000080B541F674004AF2C8
:1057E0000001C2F20040C4F2000100F1500E142387
:1057F00001603B21C0E9071302214FF440724FF0D2
:10580000000C8361C0E9022C0122028282740A2307
:10581000426142620D228162C0E90B21C0F834C0AE
:105820000422C0E90E22C0E91032C0E912328EE82B
:105830000E00C0E91733C0E919C2FBF789FF002841
:1058400008BF80BDBDE88040FBF722BB0000000020
:1058500080B541F614104AF20041C2F20040C4F291
:10586000000100F1500E142301603B21C0E9071331
:1058700002214FF440724FF0000C8361C0E9022C0A
:105880000122028282740A23426142620D228162F5
:10589000C0E90B214FF4806242630422C0E90E226A
:1058A000C0E91032C0E912328EE80E00C0E91733A9
:1058B000C0E919C2FBF74CFF002808BF80BDBDE856
:1058C0008040FBF7E5BA0000F0B587B044F2E04055
:1058D0000025C5F602000695CDE90455CDE902552F
:1058E000016840F6000441F0040101600168C5F65A
:1058F000020401F0040101910199016841F0800165
:1059000001600168012201F08001019101990168A3
:1059100041F00201016001684FF4C04601F002014C
:1059200001910199016841F00101016001680127BD
:1059300001F0010101910199016841F00801016044
:1059400000684FF4C04100F0080001900198204623
:10595000FCF78AFD02A92046CDE90267CDE904756E
:10596000FCF7AEFC07B0F0BD80B588B041F698609A
:1059700040F20042C2F2004000210791C4F200024E
:10598000CDE9051102910260EF22C0E9012140F248
:10599000E7328161C0E90321FFF7F6FA08B1FBF7AE
:1059A00077FA4FF48050049041F6986004A9C2F24F
:1059B0000040FFF7C5FB08B1FBF76AFA0020019031
:1059C000039041F69860C2F2004001A9FFF76CFA1B
:1059D00008B1FBF75DFA08B080BD000000000000D0
:1059E00080B588B041F6E46040F60002C2F20040A3
:1059F00000210791C4F20002CDE905110291026075
:105A0000EF22C0E9012140F2E7328161C0E90321C0
:105A1000FFF7BAFA08B1FBF73BFA4FF48050049055
:105A200041F6E46004A9C2F20040FFF789FB08B127
:105A3000FBF72EFA00200190039041F6E460C2F2D9
:105A4000004001A9FFF730FA08B1FBF721FA08B0CE
:105A500080BD00000000000080B541F6307041F2CA
:105A60000001C2F20040C4F201010C2201604FF4B7
:105A7000612141600021C0E902110161C0E90521F5
:105A8000C0E90711C0E90911FFF722FE08B1FBF7D1
:105A9000FFF941F630700021C2F20040FFF7D0FD5F
:105AA00008B1FBF7F5F941F630700021C2F2004071
:105AB000FFF77EFD08B1FBF7EBF941F63070C2F25B
:105AC0000040FFF759FD002808BF80BDBDE88040B9
:105AD000FBF7DEB90000000080B541F2985040F2BB
